{
    "_format": "hh-sol-artifact-1",
    "contractName": "PullContract",
    "sourceName": "contracts/PullContract.sol",
    "abi": [
        {
            "anonymous": false,
            "inputs": [
                {
                    "indexed": true,
                    "internalType": "address",
                    "name": "oldOwner",
                    "type": "address"
                },
                {
                    "indexed": true,
                    "internalType": "address",
                    "name": "newOwner",
                    "type": "address"
                }
            ],
            "name": "OwnerSet",
            "type": "event"
        },
        {
            "anonymous": false,
            "inputs": [
                {
                    "indexed": true,
                    "internalType": "uint32",
                    "name": "id",
                    "type": "uint32"
                },
                {
                    "indexed": true,
                    "internalType": "address",
                    "name": "owner",
                    "type": "address"
                },
                {
                    "indexed": false,
                    "internalType": "string",
                    "name": "title",
                    "type": "string"
                }
            ],
            "name": "PullCreation",
            "type": "event"
        },
        {
            "anonymous": false,
            "inputs": [
                {
                    "indexed": true,
                    "internalType": "uint32",
                    "name": "id",
                    "type": "uint32"
                },
                {
                    "indexed": true,
                    "internalType": "address",
                    "name": "voter",
                    "type": "address"
                },
                {
                    "indexed": false,
                    "internalType": "uint8",
                    "name": "option",
                    "type": "uint8"
                }
            ],
            "name": "VoteOnPull",
            "type": "event"
        },
        {
            "inputs": [
                {
                    "internalType": "address",
                    "name": "newOwner",
                    "type": "address"
                }
            ],
            "name": "changeOwner",
            "outputs": [],
            "stateMutability": "nonpayable",
            "type": "function"
        },
        {
            "inputs": [
                {
                    "internalType": "uint32",
                    "name": "_id",
                    "type": "uint32"
                }
            ],
            "name": "closePull",
            "outputs": [],
            "stateMutability": "nonpayable",
            "type": "function"
        },
        {
            "inputs": [
                {
                    "internalType": "string",
                    "name": "_title",
                    "type": "string"
                },
                {
                    "internalType": "string[]",
                    "name": "_options",
                    "type": "string[]"
                },
                {
                    "internalType": "uint256",
                    "name": "_duration",
                    "type": "uint256"
                }
            ],
            "name": "createPull",
            "outputs": [],
            "stateMutability": "payable",
            "type": "function"
        },
        {
            "inputs": [
                {
                    "internalType": "uint32",
                    "name": "_id",
                    "type": "uint32"
                }
            ],
            "name": "getOptionsOfPull",
            "outputs": [
                {
                    "internalType": "string[]",
                    "name": "",
                    "type": "string[]"
                }
            ],
            "stateMutability": "view",
            "type": "function"
        },
        {
            "inputs": [],
            "name": "getOwner",
            "outputs": [
                {
                    "internalType": "address",
                    "name": "",
                    "type": "address"
                }
            ],
            "stateMutability": "view",
            "type": "function"
        },
        {
            "inputs": [
                {
                    "internalType": "uint32",
                    "name": "_id",
                    "type": "uint32"
                }
            ],
            "name": "getVotesByOption",
            "outputs": [
                {
                    "internalType": "uint32[]",
                    "name": "",
                    "type": "uint32[]"
                }
            ],
            "stateMutability": "view",
            "type": "function"
        },
        {
            "inputs": [],
            "name": "pullCharge",
            "outputs": [
                {
                    "internalType": "uint256",
                    "name": "",
                    "type": "uint256"
                }
            ],
            "stateMutability": "view",
            "type": "function"
        },
        {
            "inputs": [],
            "name": "pullCount",
            "outputs": [
                {
                    "internalType": "uint32",
                    "name": "",
                    "type": "uint32"
                }
            ],
            "stateMutability": "view",
            "type": "function"
        },
        {
            "inputs": [
                {
                    "internalType": "uint32",
                    "name": "",
                    "type": "uint32"
                }
            ],
            "name": "pulls",
            "outputs": [
                {
                    "internalType": "uint32",
                    "name": "id",
                    "type": "uint32"
                },
                {
                    "internalType": "address",
                    "name": "owner",
                    "type": "address"
                },
                {
                    "internalType": "string",
                    "name": "title",
                    "type": "string"
                },
                {
                    "internalType": "uint256",
                    "name": "postTime",
                    "type": "uint256"
                },
                {
                    "internalType": "uint256",
                    "name": "endTime",
                    "type": "uint256"
                }
            ],
            "stateMutability": "view",
            "type": "function"
        },
        {
            "inputs": [
                {
                    "internalType": "uint32",
                    "name": "_id",
                    "type": "uint32"
                }
            ],
            "name": "reaminingTimeOfPull",
            "outputs": [
                {
                    "internalType": "uint256",
                    "name": "",
                    "type": "uint256"
                }
            ],
            "stateMutability": "view",
            "type": "function"
        },
        {
            "inputs": [
                {
                    "internalType": "uint256",
                    "name": "_newCharge",
                    "type": "uint256"
                }
            ],
            "name": "updatePullCharge",
            "outputs": [],
            "stateMutability": "nonpayable",
            "type": "function"
        },
        {
            "inputs": [
                {
                    "internalType": "uint32",
                    "name": "_id",
                    "type": "uint32"
                },
                {
                    "internalType": "uint8",
                    "name": "_option",
                    "type": "uint8"
                }
            ],
            "name": "voteOnPull",
            "outputs": [],
            "stateMutability": "nonpayable",
            "type": "function"
        }
    ],
    "bytecode": "0x608060405267016345785d8a00006001556000600260006101000a81548163ffffffff021916908363ffffffff16021790555034801561003e57600080fd5b50336000806101000a81548173ffffffffffffffffffffffffffffffffffffffff021916908373ffffffffffffffffffffffffffffffffffffffff16021790555060008054906101000a900473ffffffffffffffffffffffffffffffffffffffff1673ffffffffffffffffffffffffffffffffffffffff16600073ffffffffffffffffffffffffffffffffffffffff167f342827c97908e5e2f71151c08502a66d44b6f758e3ac2f1de95f02eb95f0a73560405160405180910390a361204b806101096000396000f3fe6080604052600436106100a75760003560e01c80635da4c875116100645780635da4c875146101e6578063893d20e81461020f578063a6f9dae11461023a578063be273b7014610263578063e9d98e871461028c578063ff1e3dc4146102a8576100a7565b80630789d5ff146100ac5780630a3e08f6146100ed5780631398b19e146101185780631b22883a1461014157806328611fce1461016c57806340a203d4146101a9575b600080fd5b3480156100b857600080fd5b506100d360048036038101906100ce919061152f565b6102e5565b6040516100e4959493929190611b79565b60405180910390f35b3480156100f957600080fd5b506101026103d3565b60405161010f9190611b43565b60405180910390f35b34801561012457600080fd5b5061013f600480360381019061013a9190611558565b6103d9565b005b34801561014d57600080fd5b50610156610692565b6040516101639190611b5e565b60405180910390f35b34801561017857600080fd5b50610193600480360381019061018e919061152f565b6106a8565b6040516101a091906119ff565b60405180910390f35b3480156101b557600080fd5b506101d060048036038101906101cb919061152f565b61095e565b6040516101dd9190611b43565b60405180910390f35b3480156101f257600080fd5b5061020d60048036038101906102089190611506565b610a2b565b005b34801561021b57600080fd5b50610224610ac3565b60405161023191906119c2565b60405180910390f35b34801561024657600080fd5b50610261600480360381019061025c919061145e565b610aec565b005b34801561026f57600080fd5b5061028a6004803603810190610285919061152f565b610c37565b005b6102a660048036038101906102a19190611487565b610dd7565b005b3480156102b457600080fd5b506102cf60048036038101906102ca919061152f565b611057565b6040516102dc91906119dd565b60405180910390f35b60036020528060005260406000206000915090508060000160009054906101000a900463ffffffff16908060000160049054906101000a900473ffffffffffffffffffffffffffffffffffffffff169080600101805461034490611e73565b80601f016020809104026020016040519081016040528092919081815260200182805461037090611e73565b80156103bd5780601f10610392576101008083540402835291602001916103bd565b820191906000526020600020905b8154815290600101906020018083116103a057829003601f168201915b5050505050908060050154908060060154905085565b60015481565b81600260009054906101000a900463ffffffff1663ffffffff168163ffffffff161061043a576040517f08c379a000000000000000000000000000000000000000000000000000000000815260040161043190611ae3565b60405180910390fd5b42600360008363ffffffff1663ffffffff168152602001908152602001600020600601541161049e576040517f08c379a000000000000000000000000000000000000000000000000000000000815260040161049590611aa3565b60405180910390fd5b6000600360008563ffffffff1663ffffffff168152602001908152602001600020905060008360ff161180156104de575080600201805490508360ff1611155b61051d576040517f08c379a000000000000000000000000000000000000000000000000000000000815260040161051490611b03565b60405180910390fd5b60008160040160003373ffffffffffffffffffffffffffffffffffffffff1673ffffffffffffffffffffffffffffffffffffffff16815260200190815260200160002060009054906101000a900460ff1660ff1614156105dd5780600301339080600181540180825580915050600190039060005260206000200160009091909190916101000a81548173ffffffffffffffffffffffffffffffffffffffff021916908373ffffffffffffffffffffffffffffffffffffffff1602179055505b828160040160003373ffffffffffffffffffffffffffffffffffffffff1673ffffffffffffffffffffffffffffffffffffffff16815260200190815260200160002060006101000a81548160ff021916908360ff1602179055503373ffffffffffffffffffffffffffffffffffffffff168463ffffffff167fad93db8bdd5236d30d7cd9c7f8f36af99eb658d1c8f4af9344a53f6bb6fbe409856040516106849190611bd3565b60405180910390a350505050565b600260009054906101000a900463ffffffff1681565b606081600260009054906101000a900463ffffffff1663ffffffff168163ffffffff161061070b576040517f08c379a000000000000000000000000000000000000000000000000000000000815260040161070290611ae3565b60405180910390fd5b42600360008363ffffffff1663ffffffff168152602001908152602001600020600601541161076f576040517f08c379a000000000000000000000000000000000000000000000000000000000815260040161076690611aa3565b60405180910390fd5b6000600360008563ffffffff1663ffffffff16815260200190815260200160002090506000816002018054905067ffffffffffffffff8111156107db577f4e487b7100000000000000000000000000000000000000000000000000000000600052604160045260246000fd5b6040519080825280602002602001820160405280156108095781602001602082028036833780820191505090505b50905060005b826003018054905081101561095257816001846004016000866003018581548110610863577f4e487b7100000000000000000000000000000000000000000000000000000000600052603260045260246000fd5b9060005260206000200160009054906101000a900473ffffffffffffffffffffffffffffffffffffffff1673ffffffffffffffffffffffffffffffffffffffff1673ffffffffffffffffffffffffffffffffffffffff16815260200190815260200160002060009054906101000a900460ff166108e09190611da4565b60ff168151811061091a577f4e487b7100000000000000000000000000000000000000000000000000000000600052603260045260246000fd5b60200260200101805180919061092f90611eee565b63ffffffff1663ffffffff1681525050808061094a90611ea5565b91505061080f565b50809350505050919050565b600081600260009054906101000a900463ffffffff1663ffffffff168163ffffffff16106109c1576040517f08c379a00000000000000000000000000000000000000000000000000000000081526004016109b890611ae3565b60405180910390fd5b42600360008563ffffffff1663ffffffff1681526020019081526020016000206006015410156109f45760009150610a25565b42600360008563ffffffff1663ffffffff16815260200190815260200160002060060154610a229190611d70565b91505b50919050565b60008054906101000a900473ffffffffffffffffffffffffffffffffffffffff1673ffffffffffffffffffffffffffffffffffffffff163373ffffffffffffffffffffffffffffffffffffffff1614610ab9576040517f08c379a0000000000000000000000000000000000000000000000000000000008152600401610ab090611a63565b60405180910390fd5b8060018190555050565b60008060009054906101000a900473ffffffffffffffffffffffffffffffffffffffff16905090565b60008054906101000a900473ffffffffffffffffffffffffffffffffffffffff1673ffffffffffffffffffffffffffffffffffffffff163373ffffffffffffffffffffffffffffffffffffffff1614610b7a576040517f08c379a0000000000000000000000000000000000000000000000000000000008152600401610b7190611a63565b60405180910390fd5b8073ffffffffffffffffffffffffffffffffffffffff1660008054906101000a900473ffffffffffffffffffffffffffffffffffffffff1673ffffffffffffffffffffffffffffffffffffffff167f342827c97908e5e2f71151c08502a66d44b6f758e3ac2f1de95f02eb95f0a73560405160405180910390a3806000806101000a81548173ffffffffffffffffffffffffffffffffffffffff021916908373ffffffffffffffffffffffffffffffffffffffff16021790555050565b80600260009054906101000a900463ffffffff1663ffffffff168163ffffffff1610610c98576040517f08c379a0000000000000000000000000000000000000000000000000000000008152600401610c8f90611ae3565b60405180910390fd5b42600360008363ffffffff1663ffffffff1681526020019081526020016000206006015411610cfc576040517f08c379a0000000000000000000000000000000000000000000000000000000008152600401610cf390611aa3565b60405180910390fd5b600360008363ffffffff1663ffffffff16815260200190815260200160002060000160049054906101000a900473ffffffffffffffffffffffffffffffffffffffff1673ffffffffffffffffffffffffffffffffffffffff163373ffffffffffffffffffffffffffffffffffffffff1614610dac576040517f08c379a0000000000000000000000000000000000000000000000000000000008152600401610da390611a83565b60405180910390fd5b42600360008463ffffffff1663ffffffff168152602001908152602001600020600601819055505050565b600154341015610e1c576040517f08c379a0000000000000000000000000000000000000000000000000000000008152600401610e1390611ac3565b60405180910390fd5b60018251118015610e2f57506009825111155b610e6e576040517f08c379a0000000000000000000000000000000000000000000000000000000008152600401610e6590611b23565b60405180910390fd5b6102588110158015610e82575062278d0081105b610ec1576040517f08c379a0000000000000000000000000000000000000000000000000000000008152600401610eb890611a43565b60405180910390fd5b600060036000600260009054906101000a900463ffffffff1663ffffffff1663ffffffff1681526020019081526020016000209050600260009054906101000a900463ffffffff168160000160006101000a81548163ffffffff021916908363ffffffff160217905550338160000160046101000a81548173ffffffffffffffffffffffffffffffffffffffff021916908373ffffffffffffffffffffffffffffffffffffffff16021790555083816001019080519060200190610f869291906111b4565b5082816002019080519060200190610f9f92919061123a565b504281600501819055508142610fb59190611d1a565b81600601819055503373ffffffffffffffffffffffffffffffffffffffff166002600081819054906101000a900463ffffffff1680929190610ff690611eee565b91906101000a81548163ffffffff021916908363ffffffff16021790555063ffffffff167f8ae9d3b08218a7cfda37aa4833286295ee9bd6098ae765a9ed2e094cff0712c3866040516110499190611a21565b60405180910390a350505050565b606081600260009054906101000a900463ffffffff1663ffffffff168163ffffffff16106110ba576040517f08c379a00000000000000000000000000000000000000000000000000000000081526004016110b190611ae3565b60405180910390fd5b600360008463ffffffff1663ffffffff168152602001908152602001600020600201805480602002602001604051908101604052809291908181526020016000905b828210156111a857838290600052602060002001805461111b90611e73565b80601f016020809104026020016040519081016040528092919081815260200182805461114790611e73565b80156111945780601f1061116957610100808354040283529160200191611194565b820191906000526020600020905b81548152906001019060200180831161117757829003601f168201915b5050505050815260200190600101906110fc565b50505050915050919050565b8280546111c090611e73565b90600052602060002090601f0160209004810192826111e25760008555611229565b82601f106111fb57805160ff1916838001178555611229565b82800160010185558215611229579182015b8281111561122857825182559160200191906001019061120d565b5b509050611236919061129a565b5090565b828054828255906000526020600020908101928215611289579160200282015b828111156112885782518290805190602001906112789291906111b4565b509160200191906001019061125a565b5b50905061129691906112b7565b5090565b5b808211156112b357600081600090555060010161129b565b5090565b5b808211156112d757600081816112ce91906112db565b506001016112b8565b5090565b5080546112e790611e73565b6000825580601f106112f95750611318565b601f016020900490600052602060002090810190611317919061129a565b5b50565b600061132e61132984611c1f565b611bee565b9050808382526020820190508260005b8581101561136e578135850161135488826113f5565b84526020840193506020830192505060018101905061133e565b5050509392505050565b600061138b61138684611c4b565b611bee565b9050828152602081018484840111156113a357600080fd5b6113ae848285611e31565b509392505050565b6000813590506113c581611fb9565b92915050565b600082601f8301126113dc57600080fd5b81356113ec84826020860161131b565b91505092915050565b600082601f83011261140657600080fd5b8135611416848260208601611378565b91505092915050565b60008135905061142e81611fd0565b92915050565b60008135905061144381611fe7565b92915050565b60008135905061145881611ffe565b92915050565b60006020828403121561147057600080fd5b600061147e848285016113b6565b91505092915050565b60008060006060848603121561149c57600080fd5b600084013567ffffffffffffffff8111156114b657600080fd5b6114c2868287016113f5565b935050602084013567ffffffffffffffff8111156114df57600080fd5b6114eb868287016113cb565b92505060406114fc8682870161141f565b9150509250925092565b60006020828403121561151857600080fd5b60006115268482850161141f565b91505092915050565b60006020828403121561154157600080fd5b600061154f84828501611434565b91505092915050565b6000806040838503121561156b57600080fd5b600061157985828601611434565b925050602061158a85828601611449565b9150509250929050565b60006115a083836116a2565b905092915050565b60006115b48383611995565b60208301905092915050565b6115c981611dd8565b82525050565b60006115da82611c9b565b6115e48185611cd6565b9350836020820285016115f685611c7b565b8060005b8581101561163257848403895281516116138582611594565b945061161e83611cbc565b925060208a019950506001810190506115fa565b50829750879550505050505092915050565b600061164f82611ca6565b6116598185611ce7565b935061166483611c8b565b8060005b8381101561169557815161167c88826115a8565b975061168783611cc9565b925050600181019050611668565b5085935050505092915050565b60006116ad82611cb1565b6116b78185611cf8565b93506116c7818560208601611e40565b6116d081611fa8565b840191505092915050565b60006116e682611cb1565b6116f08185611d09565b9350611700818560208601611e40565b61170981611fa8565b840191505092915050565b6000611721602b83611d09565b91507f412050756c6c20686176652068617665203130206d696e20746f20333020646160008301527f7973206475726174696f6e0000000000000000000000000000000000000000006020830152604082019050919050565b6000611787601383611d09565b91507f43616c6c6572206973206e6f74206f776e6572000000000000000000000000006000830152602082019050919050565b60006117c7602283611d09565b91507f596f7520617265206e6f7420746865206f776e6572206f66207468652070756c60008301527f6c2e0000000000000000000000000000000000000000000000000000000000006020830152604082019050919050565b600061182d601083611d09565b91507f5468652050756c6c20697320656e642e000000000000000000000000000000006000830152602082019050919050565b600061186d603b83611d09565b91507f596f75206e65656420746f2070617920737065636966696320616d6f756e742060008301527f6f662063686172676520746f2063726561746520612070756c6c2e00000000006020830152604082019050919050565b60006118d3601783611d09565b91507f4e6f2050756c6c20686173206265656e20666f756e642e0000000000000000006000830152602082019050919050565b6000611913600f83611d09565b91507f496e76616c6964206f7074696f6e2e00000000000000000000000000000000006000830152602082019050919050565b6000611953601d83611d09565b91507f412050756c6c206d757374206861766520322d39206f7074696f6e732e0000006000830152602082019050919050565b61198f81611e0a565b82525050565b61199e81611e14565b82525050565b6119ad81611e14565b82525050565b6119bc81611e24565b82525050565b60006020820190506119d760008301846115c0565b92915050565b600060208201905081810360008301526119f781846115cf565b905092915050565b60006020820190508181036000830152611a198184611644565b905092915050565b60006020820190508181036000830152611a3b81846116db565b905092915050565b60006020820190508181036000830152611a5c81611714565b9050919050565b60006020820190508181036000830152611a7c8161177a565b9050919050565b60006020820190508181036000830152611a9c816117ba565b9050919050565b60006020820190508181036000830152611abc81611820565b9050919050565b60006020820190508181036000830152611adc81611860565b9050919050565b60006020820190508181036000830152611afc816118c6565b9050919050565b60006020820190508181036000830152611b1c81611906565b9050919050565b60006020820190508181036000830152611b3c81611946565b9050919050565b6000602082019050611b586000830184611986565b92915050565b6000602082019050611b7360008301846119a4565b92915050565b600060a082019050611b8e60008301886119a4565b611b9b60208301876115c0565b8181036040830152611bad81866116db565b9050611bbc6060830185611986565b611bc96080830184611986565b9695505050505050565b6000602082019050611be860008301846119b3565b92915050565b6000604051905081810181811067ffffffffffffffff82111715611c1557611c14611f79565b5b8060405250919050565b600067ffffffffffffffff821115611c3a57611c39611f79565b5b602082029050602081019050919050565b600067ffffffffffffffff821115611c6657611c65611f79565b5b601f19601f8301169050602081019050919050565b6000819050602082019050919050565b6000819050602082019050919050565b600081519050919050565b600081519050919050565b600081519050919050565b6000602082019050919050565b6000602082019050919050565b600082825260208201905092915050565b600082825260208201905092915050565b600082825260208201905092915050565b600082825260208201905092915050565b6000611d2582611e0a565b9150611d3083611e0a565b9250827fffffffffffffffffffffffffffffffffffffffffffffffffffffffffffffffff03821115611d6557611d64611f1b565b5b828201905092915050565b6000611d7b82611e0a565b9150611d8683611e0a565b925082821015611d9957611d98611f1b565b5b828203905092915050565b6000611daf82611e24565b9150611dba83611e24565b925082821015611dcd57611dcc611f1b565b5b828203905092915050565b6000611de382611dea565b9050919050565b600073ffffffffffffffffffffffffffffffffffffffff82169050919050565b6000819050919050565b600063ffffffff82169050919050565b600060ff82169050919050565b82818337600083830152505050565b60005b83811015611e5e578082015181840152602081019050611e43565b83811115611e6d576000848401525b50505050565b60006002820490506001821680611e8b57607f821691505b60208210811415611e9f57611e9e611f4a565b5b50919050565b6000611eb082611e0a565b91507fffffffffffffffffffffffffffffffffffffffffffffffffffffffffffffffff821415611ee357611ee2611f1b565b5b600182019050919050565b6000611ef982611e14565b915063ffffffff821415611f1057611f0f611f1b565b5b600182019050919050565b7f4e487b7100000000000000000000000000000000000000000000000000000000600052601160045260246000fd5b7f4e487b7100000000000000000000000000000000000000000000000000000000600052602260045260246000fd5b7f4e487b7100000000000000000000000000000000000000000000000000000000600052604160045260246000fd5b6000601f19601f8301169050919050565b611fc281611dd8565b8114611fcd57600080fd5b50565b611fd981611e0a565b8114611fe457600080fd5b50565b611ff081611e14565b8114611ffb57600080fd5b50565b61200781611e24565b811461201257600080fd5b5056fea2646970667358221220c176f5b5daebe9be80e45794325963c8acf5cd06b094c4393bc7c328a240ada964736f6c63430008000033",
    "linkReferences": {},
    "deployedLinkReferences": {}
}